{
  "contractName": "Counter",
  "abi": [
    {
      "inputs": [],
      "stateMutability": "nonpayable",
      "type": "constructor"
    },
    {
      "inputs": [],
      "name": "counter",
      "outputs": [
        {
          "internalType": "uint256",
          "name": "",
          "type": "uint256"
        }
      ],
      "stateMutability": "view",
      "type": "function",
      "constant": true
    },
    {
      "inputs": [
        {
          "internalType": "uint256",
          "name": "x",
          "type": "uint256"
        }
      ],
      "name": "add",
      "outputs": [],
      "stateMutability": "nonpayable",
      "type": "function"
    }
  ],
  "bytecode": "0x608060405234801561001057600080fd5b50600080819055506101bd806100276000396000f3fe608060405234801561001057600080fd5b50600436106100365760003560e01c80631003e2d21461003b57806361bc221a14610057575b600080fd5b610055600480360381019061005091906100cd565b610075565b005b61005f61008c565b60405161006c9190610109565b60405180910390f35b806000546100839190610153565b60008190555050565b60005481565b600080fd5b6000819050919050565b6100aa81610097565b81146100b557600080fd5b50565b6000813590506100c7816100a1565b92915050565b6000602082840312156100e3576100e2610092565b5b60006100f1848285016100b8565b91505092915050565b61010381610097565b82525050565b600060208201905061011e60008301846100fa565b92915050565b7f4e487b7100000000000000000000000000000000000000000000000000000000600052601160045260246000fd5b600061015e82610097565b915061016983610097565b925082820190508082111561018157610180610124565b5b9291505056fea2646970667358221220111f34bd0b2fb64faf8204fede1ea68bd2e82524556cfd7d9e6e0ed664ada6a464736f6c63430008130033",
  "immutableReferences": {},
  "source": "pragma solidity >=0.8.2 <0.9.0;\r\n\r\n/**\r\n * @title Counter\r\n * @dev Store & retrieve value in a variable\r\n * @custom:dev-run-script ./scripts/deploy_with_ethers.ts\r\n */\r\ncontract Counter {\r\n    uint public counter;\r\n    constructor(){\r\n        counter = 0;\r\n    }\r\n\r\n    function add(uint x) public {\r\n        counter = counter+x;\r\n    }\r\n\r\n  \r\n}",
  "sourcePath": "D:\\upachaincampWork\\upachaincamp\\w1-2\\MetaCoin\\contracts\\Counter.sol",
  "compiler": {
    "name": "solc",
    "version": "0.8.19+commit.7dd6d404.Emscripten.clang"
  },
  "schemaVersion": "3.4.13",
  "updatedAt": "2023-03-09T12:26:46.883Z",
  "networkType": "ethereum",
  "devdoc": {
    "custom:dev-run-script": "./scripts/deploy_with_ethers.ts",
    "details": "Store & retrieve value in a variable",
    "kind": "dev",
    "methods": {},
    "title": "Counter",
    "version": 1
  },
  "userdoc": {
    "kind": "user",
    "methods": {},
    "version": 1
  }
}